:020000040800F2
:10000000F8070120D9020008EB020008ED02000801
:10001000EF020008F1020008F302000800000000EF
:100020000000000000000000000000003102000895
:10003000F70200080000000075020008850E0008A5
:10004000FD020008FD020008FD020008FD02000894
:10005000FD020008FD020008FD020008FD02000884
:10006000FD020008FD020008FD020008FD02000874
:10007000FD020008FD020008FD020008FD02000864
:10008000FD020008FD020008FD020008FD02000854
:10009000FD020008FD020008FD020008FD02000844
:1000A000FD020008FD020008FD020008FD02000834
:1000B000FD020008FD020008FD020008FD02000824
:1000C000FD020008FD020008FD020008FD02000814
:1000D000FD020008FD02000871110008FD02000881
:1000E000FD020008FD020008FD020008FD020008F4
:1000F000FD020008FD020008FD020008FD020008E4
:10010000FD020008FD020008FD020008FD020008D3
:10011000FD020008FD020008FD020008FD020008C3
:10012000FD020008FD020008FD020008FD020008B3
:10013000FD020008FD020008FD020008FD020008A3
:10014000FD020008FD020008FD020008FD02000893
:10015000FD020008FD020008FD020008FD02000883
:10016000FD020008FD020008FD020008FD02000873
:10017000FD020008FD020008FD020008FD02000863
:10018000FD020008FD02000800F002F800F041F84E
:100190000AA090E8000C82448344AAF10107DA45E2
:1001A00001D100F036F8AFF2090EBAE80F0013F0F3
:1001B000010F18BFFB1A43F001031847F426000093
:1001C00014270000103A24BF78C878C1FAD8520723
:1001D00024BF30C830C144BF04680C6070470000C1
:1001E0000023002400250026103A28BF78C1FBD840
:1001F000520728BF30C148BF0B607047752900F017
:10020000A780002070471FB502F04CFB1FBD10B542
:1002100010BD00F0A1FA1146FFF7F5FF01F09AF8C2
:1002200000F0BFFA03B4FFF7F2FF03BC00F0C6FA18
:10023000234B19680868B0E8F04F80F309884FF045
:10024000000080F311887047000000000348006838
:10025000006880F3088862B600DF00BF08ED00E0A8
:10026000DFF80C00016841F470010160704700BFC5
:1002700088ED00E0EFF30980114B1A681EF0100FB3
:1002800008BF20ED108A20E9F04F106008B54FF04C
:10029000500080F3118801F0C1FE4FF0000080F3A0
:1002A0001188BDE8084019680868B0E8F04F1EF0F2
:1002B000100F08BFB0EC108A80F30988704700BFA8
:1002C00030000020EFF311804FF0500181F31188CE
:1002D000704780F3118870470C48016841F4700141
:1002E00001600B4880470B480047FEE7FEE7FEE74A
:1002F000FEE7FEE7FEE7FEE7FEE7FEE7FEE70000BB
:1003000005480649064A074B7047000088ED00E0A3
:10031000A50E000889010008F8010120F807012056
:10032000F8030120F80301200FB41CB5074B06AAFF
:100330007B4469460090059800F07BF900206946EF
:1003400000F08AF91CBC5DF814FB000025030000D6
:100350002DE9F0410646002410687529314616A59E
:1003600010D0AFF30080002802DA404213A507E066
:1003700031688A0701D512A502E0490704D511A505
:10038000012401E0AFF3008000210A2206F12407D6
:1003900009E0B0FBF2FCB0FBF2F302FB1C003030D2
:1003A00078541846491C0028F3D123462A46304683
:1003B000BDE8F04100F0DFB8000000002D000000B3
:1003C0002B000000200000002DE9F0410F460546FB
:1003D000002028622846E968884770B3252805D0A0
:1003E000D5E901219047286A401CF2E7E9682846D0
:1003F000002688476C2804460AD0682C08D04C2C6C
:1004000035D06A2C31D0742C31D07A2C2FD016E014
:10041000E968064628468847B042044608D16C2E53
:1004200023D04FF480662846E9688847044606E0F2
:100430006C2E03D04FF4807601E01EE04026E4B13C
:10044000A4F14100192802D8203446F400663A4647
:10045000214628462E60FFF7D1FE60B1012808D062
:10046000FF1D27F007070837B4E78026DBE70026E3
:10047000D9E73F1DAEE72046B2E7286ABDE8F08124
:10048000032A40F2308010F0030C00F0158011F8C0
:10049000013BBCF1020F624498BF11F801CB00F898
:1004A000013B38BF11F8013BA2F1040298BF00F8EC
:1004B00001CB38BF00F8013B11F0030300F0D180FD
:1004C000083AC0F0088051F8043B083A51F804CBD0
:1004D000A0E80810F5E7121D5CBF51F8043B40F896
:1004E000043BAFF30080D20724BF11F8013B11F8A1
:1004F00001CB48BF11F8012B24BF00F8013B00F8E5
:1005000001CB48BF00F8012B704702F0FF0343EA1C
:10051000032242EA024200F0D8B810B5044610F0B7
:10052000030F08BF11F0030F40F015804FF0013E9C
:10053000121FC0F20E8051F8043BA3EB0E0C2CEA04
:10054000030C1CEACE1C08BF40F8043BF0D0A1F11C
:10055000040102F10402521E08DB11F8013B002BDA
:1005600000F8013BF7D1114600F0ADF8204610BD70
:100570007047704770472DE9F0470D4699469246FF
:10058000044600F124080168880604D5E06921F0DA
:100590001001216000E00120A84201DD471B00E0BE
:1005A0000027A1697A1902EB0900081AA0612078D6
:1005B000C00602D42046AFF30080002608E0D4E94C
:1005C00001211AF806009047206A401C761C206220
:1005D0004E45F4DB2078C0060AD52046AFF30080F4
:1005E00006E0D4E9012130209047206A401C2062B7
:1005F000381EA7F10107F4DC07E0D4E9012118F85F
:1006000005009047206A401C2062281EA5F10105C4
:10061000F3DC2046AFF300802078000602D50220EC
:10062000BDE8F0870120FBE701694A1C02610878F8
:10063000704700B58FB0CDE9013100210591054922
:100640007944CDE9031011466846FFF7BDFE0FB0AF
:1006500000BD0000E5FFFFFF0A6802F8010B0A6019
:10066000704710B5203AC0F00B80B1E81850203A1E
:10067000A0E81850B1E81850A0E81850BFF4F5AF42
:100680005FEA027C24BFB1E81850A0E8185044BFCC
:1006900018C918C0BDE810405FEA827C24BF51F839
:1006A000043B40F8043B08BF7047D20728BF31F82D
:1006B000023B48BF11F8012B28BF20F8023B48BF7E
:1006C00000F8012B70474FF000020429C0F012809F
:1006D00010F0030C00F01B80CCF1040CBCF1020FF5
:1006E00018BF00F8012BA8BF20F8022BA1EB0C01CA
:1006F00000F00DB85FEAC17C24BF00F8012B00F8C0
:10070000012B48BF00F8012B70474FF0000200B5E5
:10071000134694469646203922BFA0E80C50A0E824
:100720000C50B1F12001BFF4F7AF090728BFA0E8D2
:100730000C5048BF0CC05DF804EB890028BF40F89E
:10074000042B08BF704748BF20F8022B11F0804FE0
:1007500018BF00F8012B7047754600F02BF8AE4625
:1007600005006946534620F00700854618B020B5BD
:10077000FFF7C6FDBDE820404FF000064FF0000730
:100780004FF000084FF0000B21F00701AC46ACE839
:10079000C009ACE8C009ACE8C009ACE8C0098D46A6
:1007A000704710B50446AFF300802046BDE8104006
:1007B000FFF738BD00487047940101200149182017
:1007C000ABBEFEE726000200704700008EB00FE0CF
:1007D0008021402000F098F9024606A101A8FFF709
:1007E000A3FD01A800F0AEFC4FF4FA7001F066FA28
:1007F000EEE70000413A256C7500000010B5044694
:100800004C2C43D004DC422C1AD0462C5AD104E0A4
:10081000522C28D0532C55D14BE04C21012000F014
:1008200073FA5221012000F06FFA4C214FF4487006
:1008300000F0A0FA52214FF4487000F09BFA42E019
:100840004C21002000F060FA5221002000F05CFAF8
:100850004C214FF4487000F08DFA52214FF448704B
:1008600000F088FA2FE04C21012000F04DFA5221CF
:10087000002000F049FA4C214FF4487000F07AFA59
:1008800052214FF4487000F075FA1CE04C21002012
:1008900000F03AFA5221012000F036FA4C214FF4D0
:1008A000487000F067FA52214FF4487000F062FA85
:1008B00009E04C21002000F05DFA5221002000F0F8
:1008C00059FA00E000BF00BF10BD00008EB00FE07D
:1008D0000221012000F018F9024606A101A8FFF745
:1008E00023FD01A800F02EFC4FF4FA7001F0E6F9A8
:1008F000EEE70000463A256C75000000F0B50A46A8
:1009000000210023002400BF3DE0012505FA01F38A
:10091000156805EA03049C4234D105684F0003269C
:10092000BE40B543056015794E00B54006683543B5
:1009300005601579012D02D01579022D16D1856833
:100940004F000326BE40B543856055794E00B54043
:10095000866835438560456801268E40B54345600D
:10096000456896798E40B6B235434560C5684F00FC
:100970000326BE40B543C560D5794E00B540C66874
:100980003543C560491C1029BFD3F0BDF0B5002325
:1009900000244D07ED0E02FA05F3CE1000F12005FC
:1009A00055F826504E07F70E0F26BE40B543CF1020
:1009B00000F1200646F82750CE1000F1200555F82A
:1009C000265045EA0304CE1000F1200545F82640E4
:1009D000F0BD0246002013690B400BB1012000E07E
:1009E0000020704741837047018370471CB5012187
:1009F000084600F0F5F84120009001208DF8040031
:100A000002208DF8050000208DF806008DF8070003
:100A100069460848FFF772FF8220009000208DF899
:100A2000040002208DF8070069460248FFF766FFC0
:100A30001CBD0000000002401CB50121022000F096
:100A4000CFF84FF45860009001208DF80400022088
:100A50008DF8050000208DF806008DF80700694626
:100A60000148FFF74BFF1CBD0004024000B58BB0EE
:100A70000121022000F0B4F80121042000F0C0F8A8
:100A80004FF41070099002208DF828008DF829008D
:100A900000208DF82A008DF82B0009A91848FFF7CF
:100AA0002DFF022206211648FFF770FF02220721C0
:100AB0001348FFF76BFF5320ADF818000020ADF886
:100AC0001A0040F2E730079006A90E4800F0B4FA89
:100AD0006020ADF804000120ADF80600002003906E
:100AE000ADF8100001A9074800F016FA01A9054861
:100AF00000F050FA0121034800F002FA0BB000BDEB
:100B000000040240000800402DE9F04106468846F6
:100B100031461448FFF768FF012001F0CFF8314655
:100B20001048FFF75FFF00BF41460E48FFF751FF37
:100B30000028F9D001F09AFD044600BF414609485B
:100B4000FFF747FF0128F9D001F090FD0546281B6B
:100B500048F2FC5148434FF4FA61B0FBF1F73846D4
:100B6000BDE8F0810000024070B5002100230F2293
:100B7000C4781CB3174C246804F4E064C4F5E06442
:100B8000C4F30721C1F10404E3B20A4144789C4054
:100B9000E1B28478144021430C07210E0E4C0578F5
:100BA0006155047804F01F050124AC4005786D11EF
:100BB000AD0005F1E025C5F8004109E0047804F036
:100BC0001F050124AC40054D0678761145F82640F6
:100BD00070BD00000CED00E000E400E080E100E00A
:100BE00029B1064A12680243044B1A6004E0034A22
:100BF00012688243014B1A6070470000303802408F
:100C000029B1064A12680243044B1A6004E0034A01
:100C100012688243014B1A6070470000403802405E
:100C2000F0B5002100220024022500260223324FC5
:100C30003F6807F00C0121B1042905D0082937D1FC
:100C400005E02E4F076036E02D4F076033E02A4F56
:100C50003F1F3F68C7F38056274F3F1F3F6807F08D
:100C60003F036EB1264FB7FBF3F7DFF88CC0ACF152
:100C7000040CDCF800C0CCF3881C07FB0CF40CE07F
:100C80001E4FB7FBF3F7DFF870C0ACF1040CDCF8D3
:100C900000C0CCF3881C07FB0CF4174F3F1F3F68C4
:100CA000C7F301477F1C7D00B4FBF5F7076002E046
:100CB000124F076000BF00BF0F4F3F6807F0F00101
:100CC0000909104F7A5C0768D74047600A4F3F68B0
:100CD00007F4E051890A0B4F7A5C4768D740876078
:100CE000054F3F6807F46041490B064F7A5C47683F
:100CF000D740C760F0BD0000083802400024F4006F
:100D000000127A000400002070B504460D464C2DF8
:100D100014D14CB180211648FFF766FE4FF4807164
:100D20001348FFF75FFE21E04FF480711048FFF792
:100D30005BFE80210E48FFF755FE17E0522D15D1BE
:100D400054B14FF480610A48FFF74EFE4FF4006142
:100D50000748FFF747FE09E04FF400610448FFF73A
:100D600043FE4FF480610248FFF73CFE70BD000077
:100D700000040240B0F57A7F01DD4FF47A704C290F
:100D800002D1044A106004E0522902D1014A121D26
:100D900010607047340800400CB5002001900090AE
:100DA0003448006840F480303249086000BF314860
:100DB000006800F4003000900198401C01900098F9
:100DC00018B90198B0F5A04FF1D12A48006800F495
:100DD000003010B10120009001E000200090009848
:100DE000012846D123484030006840F08050214916
:100DF000403108602048006840F440401E490860C7
:100E00001C48083000681B49083108600846006823
:100E100040F4004008600846006840F4A0500860B4
:100E20001648091F0860081F006840F08070091FFD
:100E3000086000BF0F48006800F000700028F9D07B
:100E400040F205600E4908600A480830006820F04A
:100E500003000849083108600846006840F00200B5
:100E6000086000BF03480830006800F00C00082844
:100E7000F8D10CBD00380240007000400864410801
:100E8000003C024010B54FF0805005490860FFF764
:100E900019FA00F02FFF0020FFF71BFA10BD000029
:100EA00004ED00E010B51248006840F00100104960
:100EB000086000200E49083108600D4800680D499F
:100EC00008400B4908600C48091D0860081F0068AD
:100ED00020F48020091F0860002005490C310860BB
:100EE000FFF75AFF4FF000600449086010BD000092
:100EF00000380240FFFFF6FE1030002408ED00E04D
:100F000021B1028842F00102028004E002884FF61B
:100F1000FE731A400280704770B50024002200233F
:100F2000058C4FF6FE7635400584028C8388048B51
:100F30004FF68F752C40B51E2C400D882C43751E26
:100F40002A408D892A434D882A43104DA84202D059
:100F50000F4DA84213D14FF6F7752A40CD892A4389
:100F60004FF6FB752A408D882A434FF6FF652B40CC
:100F70004FF6FF552B400D8A2B434D8A2B43838020
:100F800004838D684563028470BD00000000014049
:100F90000004014070B5002400220023058C4FF6A8
:100FA000EF7635400584028C8388048B48F6FF7504
:100FB0002C404FF6FF452C400D884FF6FF7606EA91
:100FC00005252C434FF6DF752A408D8906EA051565
:100FD0002A434D8806EA05152A43154DA84202D03A
:100FE000144DA8421DD14FF67F752A40CD894FF68A
:100FF000FF7606EA05152A434FF6BF752A408D880D
:1010000006EA05152A434FF6FF352B404FF2FF75D0
:101010002B400D8A06EA85052B434D8A06EA850595
:101020002B43838004838D688563028470BD000038
:10103000000001400004014000220288184B984241
:101040000ED0184B98420BD0B0F1804F08D0164B01
:10105000984205D0154B984202D0154B984204D1C6
:101060004FF68F731A404B881A43124B984207D0A1
:10107000114B984204D04FF6FF431A400B891A4394
:1010800002804B68C3620B880385054B984202D0EF
:10109000044B984201D18B7A0386012383827047E7
:1010A000000001400004014000040040000800402E
:1010B000000C0040001000400014004000B587B054
:1010C00001210846FFF78CFD01214804FFF798FD38
:1010D0000C20059002208DF818008DF819000020D2
:1010E0008DF81A0001208DF81B0005A91348FFF7A1
:1010F00005FC072202211148FFF748FC07220321C3
:101100000E48FFF743FC4FF4165001900020ADF855
:1011100010000C20ADF80E000020ADF80C00ADF86A
:101120000A00ADF8080001A9054800F09FF8012168
:10113000034800F033F807B000BD00000000024093
:101140000044004010B504460BE000BF8021074872
:1011500000F030F80028F9D014F8011B034800F023
:10116000F4F820780028F0D110BD000000440040C1
:1011700010B540F22551074800F029F8012804D1A4
:10118000044800F0DDF80449087003480078FFF7D0
:1011900035FB10BD004400400000002021B18289D1
:1011A00042F40052828104E082894DF6FF731A40B6
:1011B0008281704702460020B1F5007F00D100BF58
:1011C00013880B400BB1012000E00020704770B580
:1011D0000246002400230025002040F66A16B14292
:1011E00000D100BFC1F3421501F01F03012606FA2A
:1011F00003F3012D02D19689334006E0022D02D17E
:10120000168A334001E0968A33400C12012606FA12
:1012100004F41688344013B10CB1012000E0002022
:1012200070BDF0B50346002400260025002040F6DE
:101230006A17B94200D100BF1846C1F3421401F049
:101240001F06012707FA06F5012C01D10C3004E036
:10125000022C01D1103000E014301AB107682F437E
:10126000076002E00768AF430760F0BD2DE9FF4764
:1012700005460E460024A14600BFA046B08900B135
:1012800000BF2C8A24F44054F08804432C82AC899B
:1012900041F20C608443B088318908437189084366
:1012A0000443AC81AC8A24F44074B0890443AC821A
:1012B0006846FFF7B5FC2048854202D01F488542AA
:1012C00002D1DDF80C9001E0DDF80890A88900F467
:1012D000004040B109EBC90000EB0910316849003A
:1012E000B0FBF1F707E009EBC90000EB091031682A
:1012F0008900B0FBF1F76420B7FBF0F0040120098E
:10130000642101FB1078A88900F4004040B132202C
:1013100000EBC800B0FBF1F000F00700044308E068
:10132000322000EB08106421B0FBF1F000F00F0058
:1013300004432C81BDE8FF870010014000140140E8
:1013400001468888C0F308007047C1F30802828014
:10135000704700001FB5FFF7A5FDFFF747FBFFF73C
:101360006BFBFFF7ABFE00F0D1FBFFF77FFB00202C
:101370000123CDE900300290034680220AA10390A8
:101380000D4801F0B7F800200123CDE900300290AC
:101390000346802209A103900C4801F0ABF800F04D
:1013A00005FE00BFFEE7000046726F6E7453656E67
:1013B000736F725461736B00CD0800084261636BF8
:1013C00053656E736F725461736B0000CD07000834
:1013D00010B504460E48006844600E480068844218
:1013E00007D20B480168091D0B48006800F0CAFBD2
:1013F0000CE007480168091D0848006800F0C2FBBE
:1014000007480068844201D20548046010BD00000E
:10141000300000204400002038000020340000206C
:101420006800002070B505460E464C2000F002FB17
:10143000044694B11EB9A80000F0FCFA00E0304662
:101440002063206B20B9204600F0E4FB002404E078
:10145000A900A522206BFFF758F8204670BD0000B8
:1014600010B500F0B7FB0C48006890B90B4800F0CD
:1014700079FB0B4800F076FB08480A4908600848E9
:101480000949086000220C210A2000F02BFE0249C5
:10149000086000F0AFFB10BD740000206C0101205B
:1014A000800101206C0000207000002070B523E056
:1014B00000F0ACFD1348006808B9012000E00020EE
:1014C000054601F01FF9BDB900F084FB0D48C06866
:1014D000C468201D00F032FB0B480068401E0A491A
:1014E00008600A480068401E0849086000F082FB56
:1014F000204600F056F800BF044800680028D7D105
:1015000070BD00001C010120400000203C000020B4
:1015100070B504460D46206870B1216CE06808443F
:10152000E0606168E068884201D32068E060284696
:10153000226CE168FEF7A4FF70BD70B504460E464C
:101540001546206C38B9206838BB606800F0B2FCE2
:101550000020606021E07DB93146226CA068FEF772
:101560008FFF216CA0680844A060D4E90110884274
:1015700013D32068A06010E03146226CE068FEF7CB
:101580007FFF216CE068401AE0602168E0688842D3
:1015900003D2216C6068401AE060A06B401CA0631D
:1015A00070BD10B50446206B00F034FB204600F0FF
:1015B00031FB10BD0146084A126812680AB90122BF
:1015C00000E000220A600A6822B9034A1268D26861
:1015D000106800E0002070476C0000200A4A22F0EA
:1015E00007000A4A10600022084B5A604FF6F87252
:1015F000074B5A6000221A6001464FF6F8724A60A3
:101600001A460A6070470000840000201400002081
:101610001C00002000BFFFF749FF034800680128B5
:10162000F9D900F021FBF6E77C0001202DE9F0411B
:1016300004460E4615469846069F0A22314604F196
:101640003400FEF76AFF00213D200155052D00D32F
:101650000425E562A564201D00F091FA04F118004C
:1016600000F08DFA2461C5F10500A0616462BDE857
:10167000F081000010B5002407E004EB84010F4A5C
:1016800002EB810000F06EFA641C052CF5D30C48C7
:1016900000F068FA0B4800F065FA0B4800F062FAB7
:1016A0000A4800F05FFA0A4800F05CFA0448094969
:1016B000086004480849086010BD00007C00012053
:1016C000E0000120F4000120080101201C0101209C
:1016D0003001012034000020380000202DE9F041C5
:1016E00004460D4616461F464FF00008656024610B
:1016F000B5420CD8F01BA169884202D34FF0010813
:1017000011E0211D0948006800F03CFA0BE0BE42E0
:1017100004D2BD4202D34FF0010804E0211D044869
:10172000006800F02FFA4046BDE8F081700000200C
:101730006C00002070B5054600F04CFAA86B08B9A3
:10174000012400E0002400F055FA204670BD70B579
:10175000054600F03FFAA86BE96B884201D10124ED
:1017600000E0002400F046FA204670BDF8B50546BA
:101770000F4613480068C068C468201D00F0DEF9F9
:10178000E069012817D1A06941192B463A46204645
:10179000FFF7A4FF01280ED1002003462A46014688
:1017A0000090204601F04AF806461EB9FEF78AFD71
:1017B00000BFFEE700BF2046616A8847F8BD000011
:1017C0006C00002070B586B053E0059C606908B9D4
:1017D000012000E0002010B9201D00F0AFF902A8A0
:1017E00000F07AF80546039830B1012826D0022887
:1017F00025D003283BD136E00498A269811803461E
:101800002A462046FFF76AFF012816D12046616A62
:101810008847E069012810D1002000900498A16950
:10182000421800231946204601F008F806461EB962
:10183000FEF748FD00BFFEE700BF19E018E004987E
:10184000A061A06908B1012000E0002018B9FEF7EE
:1018500039FD00BFFEE7A06941192B462A46204604
:10186000FFF73CFF04E0204600F0D4F900E000BFA1
:1018700000BF00231A4603A90348006800F060FC7B
:101880000028A2D106B070BD74000020F8B504464F
:101890000E4600F0BBFB684600F01EF805460098B7
:1018A000A0B946B9AC4206D800F02CFF2946204624
:1018B000FFF75CFF0CE0611B0648006800F0E0F9F0
:1018C00000F020FF20B900F0CFF901E000F01AFF8E
:1018D000F8BD00007400002070B5044600F0C6FE9C
:1018E000054608480068854206D20648006800F0B0
:1018F0000BF80120206001E0002020600148056015
:10190000284670BD780000202DE9F84381462BE081
:1019100020480068C06805681E480068C068C46840
:10192000201D00F00BF92046616A8847E069012814
:101930001AD1A0694619AE4207D966602461211DFB
:101940001448006800F01EF90EE0002003462A4605
:1019500001460090204600F071FF07461FB9FEF7D0
:10196000B1FC00BFFEE700BF0A480068006808B984
:10197000012000E000200028CAD00648D0F80080EE
:1019800005480068034908600348C0F80080BDE8C6
:10199000F88300006C0000207000002008B500BF34
:1019A0006846FFF707FE044620460099FFF76EFFE2
:1019B000FFF708FFF4E710B5044600F00BF911E05B
:1019C000606A08B9012000E0002038B904F1240061
:1019D00000F058FE18B100F01FFA00E005E0A06C1E
:1019E000401EA064A06C0028EADC00BF4FF0FF306E
:1019F000A06400F0FFF800F0EDF811E0206908B9EC
:101A0000012000E0002050B904F1100000F03AFE7F
:101A100008B100F001FA606C401E606400E002E072
:101A2000606C0028EADC00BF4FF0FF30606400F01B
:101A3000E1F810BD2DE9F04104464FF0000800F038
:101A4000E5FA2648006820B9FFF7C8FD01202349C0
:101A5000086044B1103404F0070020B104F007001E
:101A6000C0F108000444002C32D04FF6F8708442D4
:101A70002ED21B4F3846056801E02F462D68686856
:101A8000A04202D228680028F7D1164885421FD00C
:101A9000386800F11008286838606868001B202842
:101AA00010D92E196868001B70606C6071680C4852
:101AB00000E00068026852688A42FAD30268326025
:101AC000066000BF084968680968081A0649086086
:101AD00000F018FE4046BDE8F0810000280000201C
:101AE000140000201C00002024000020001F4FF0E4
:101AF00080730360001F0160001F0023036014381F
:101B00000260001FDB1E03602038704708B5012209
:101B100040F225510848FFF784FB26208DF800008D
:101B200000208DF801008DF8020001208DF80300DF
:101B30006846FFF719F808BD004400400146D1E9A6
:101B400001309860D1E9010358600A695068884201
:101B500001D188685060002008611068401E106044
:101B60001068704700F1080141604FF0FF3181605B
:101B700000F10801C160016100210160704700218E
:101B80000161704710B502460B685C1C0CB9106906
:101B900007E002F1080000E04068446824689C42C5
:101BA000FAD944684C604C68A160886041600A6161
:101BB0001468641C146010BD426853684B6043682D
:101BC0008B605368996051604160086103685B1CD9
:101BD0000360704710B5FEF775FB05480068401CB0
:101BE00003490860BFF34F8FBFF36F8F10BD000034
:101BF0002C00002010B506480068401E044908600B
:101C00000846006810B90020FEF763FB10BD000015
:101C10002C00002070B506463546B6B1103D2C4666
:101C200000F0F4F96168094800E000680268526851
:101C30008A42FAD302682260046005496068096834
:101C400008440349086000F05DFD70BD14000020E9
:101C50002400002003484FF0E0214861072008617C
:101C6000704700003F9002004FF080500349086029
:101C7000BFF34F8FBFF36F8F7047000004ED00E09C
:101C800070B505460E462C46FFF7A4FF606C401C5D
:101C900008B900206064A06C401C08B90020A06452
:101CA000FFF7A8FFA06B20B9314604F1240000F033
:101CB000E3F82046FFF77FFE70BD000070B50446D4
:101CC00000267CB100F0A2F9084800680519084810
:101CD0000068001DFFF732FF2846FFF779FB00F090
:101CE00011FD06460EB9FFF7BFFF70BD440000208E
:101CF0003000002070B53F480068002873D13E488E
:101D00000068401C3C4908600846006868BB3B48C6
:101D10000068006808B9012000E0002018B9FEF74B
:101D2000D1FA00BFFEE735480568354800683349F9
:101D300008603348056033480068401C314908603A
:101D40002E480068006808B9012000E0002020B19A
:101D50004FF0FF302C49086006E028480068C06852
:101D6000C46829496068086000BF234800682649A4
:101D70000968884236D300BF20480068006808B967
:101D8000012000E0002020B14FF0FF301E49086024
:101D900027E01A480068C068C4686568164800688B
:101DA000A84202D2184805601BE0201DFFF7C6FEBE
:101DB000A06A18B104F11800FFF7C0FE1349E06AE9
:101DC0000968884202D91149E06A0860E16A01EBBA
:101DD00081010F4A02EB8100211DFFF7EDFECBE7E9
:101DE00001E000BF04E00B480068401C094908609E
:101DF00070BD00005400002044000020340000208A
:101E00003800002060000020680000204C00002006
:101E10007C00012058000020012001490860704723
:101E20005C00002070B505460C461DB9FEF74AFA65
:101E300000BFFEE70D48016818312846FFF7A2FEF3
:101E40000A480068001DFFF779FE601C30B907489A
:101E50000168091D0648FFF7AFFE05E00548006868
:101E600006193046FFF7B4FA70BD000030000020BC
:101E7000300101204400002070B504460D461CB915
:101E8000FEF720FA00BFFEE7084801681831204637
:101E9000FFF792FE05480068001DFFF74FFE04485B
:101EA000006846193046FFF793FA70BD30000020F5
:101EB0004400002070B505462C46EDB1A16CE06AE7
:101EC000884219D0201DFFF739FEA06CE062E06A5D
:101ED000C0F10500A0610949E06A0968884202D999
:101EE0000649E06A0860E16A01EB8101044A02EBFD
:101EF0008100211DFFF760FE70BD00004C00002036
:101F00007C00012070B505462C4685B31B49E06A6C
:101F10000968C96A88422FD218480068C06AC0F1AF
:101F20000500A061E16A01EB8101154A02EB810124
:101F30006069884201D1012000E00020C0B1201D6D
:101F4000FFF7FCFD0D480068C06AE0620D49E06AD9
:101F50000968884202D90B49E06A0860E16A01EB2E
:101F60008101074A02EB8100211DFFF725FE03E0F6
:101F700002480068C06AE06270BD000030000020C6
:101F80007C0001204C00002010B504461CB9FEF76F
:101F900099F900BFFEE70348006820600248006826
:101FA000606010BD60000020440000201FB50020CC
:101FB00000900190029003464FF480720EA10390AE
:101FC0000F4800F097FA0446012C02D100F010FCF3
:101FD0000446012C0AD1FEF775F901200949086071
:101FE00000200949086000F059F804E01CB9FEF728
:101FF00069F900BFFEE71FBD49444C4500000000E1
:102000001516000850000020440000200248006817
:10201000401C0149086070475400002010B51A4860
:10202000006818B10120194908602CE00BE018483D
:10203000006818B9FEF746F900BFFEE714480068CB
:10204000401E134908601248006800EB80001149E7
:1020500051F820000028EAD00D49096801EB810100
:102060000C4A02EB810041684968416000F10801B7
:1020700042688A4202D14168496841604168C96842
:10208000054A116000BF10BD540000205C00002014
:102090004C0000207C0001203000002010B50E48CC
:1020A000006840F470000C4908600846006840F081
:1020B00070400860FFF7CEFD002008490860FEF779
:1020C000CFF80748006840F0404005490860FEF737
:1020D000BDF8002010BD000020ED00E02C00002025
:1020E00034EF00E02DE9F04705460E4617464FF065
:1020F0000009DDB15020FFF79DFC0446B4B105FB9B
:1021000006F000F101084046FFF794FC20602068CB
:1021100048B1E56326640121204600F0B1F884F857
:102120004D70A14602E02046FFF774FDB9F1000FA3
:1021300003D1FEF7C7F800BFFEE74846BDE8F087C9
:102140002DE9FF4383B005460E461F464FF00009B8
:102150002C461CB9FEF7B6F800BFFEE70EB9206C9E
:1021600008B9012000E0002018B9FEF7ABF800BF65
:10217000FEE700BFFFF72EFDA06B90B3D4F80C80F4
:1021800031462046FFF7C4F9B7B9A06B401EA063E3
:10219000206810B900F054FA6060206908B9012085
:1021A00000E00020B8B904F1100000F06BFA01283B
:1021B00011D1FFF759FD0EE0C4F80C80606A08B930
:1021C000012000E0002030B904F1240000F05AFAA8
:1021D00008B1FFF749FDFFF70DFD012007B0BDE88D
:1021E000F083FFE7059818B9FFF704FD0020F5E735
:1021F000B9F1000F04D101A8FFF7C6FE4FF00109A5
:10220000FFF7F8FCFFF702FFFFF7E4FC606C401CEF
:1022100008B900206064A06C401C08B90020A064CC
:10222000FFF7E8FC05A901A800F028F908BB204643
:10223000FFF780FAB8B1206830B9FFF7CBFC6068CF
:10224000FFF760FEFFF7D6FC04F124000599FFF7C5
:10225000E9FD2046FFF7AFFB00F054FA002889D1D2
:10226000FFF702FD86E72046FFF7A5FB00F04AFADC
:1022700080E72046FFF79FFB00F044FA0020ADE71F
:1022800070B505460E462C461CB9FEF71BF800BF7C
:10229000FEE7FFF79FFCD4E90F12206801FB020064
:1022A00060600020A0632068A060E06B401E226C8C
:1022B000216800FB0210E0604FF0FF306064A06412
:1022C00076B9206908B9012000E0002080B904F146
:1022D000100000F0D7F901280AD1FFF7C5FC07E08C
:1022E00004F11000FFF73EFC04F12400FFF73AFC74
:1022F000FFF780FC012070BD2DE9FF4182B005464B
:102300000E461F464FF000082C461CB9FDF7DAFFB9
:1023100000BFFEE70EB9206C08B9012000E00020E4
:1023200018B9FDF7CFFF00BFFEE700BFFFF752FC73
:10233000A06BE16B884218D23A4631462046FFF73F
:10234000FCF8606A08B9012000E0002038B904F107
:10235000240000F097F9012801D1FFF785FCFFF771
:1023600049FC012006B0BDE8F081049818B9FFF7D8
:1023700041FC0020F6E7B8F1000F04D16846FFF7F2
:1023800003FE4FF00108FFF735FCFFF73FFEFFF7B4
:1023900021FC606C401C08B900206064A06C401CEB
:1023A00008B90020A064FFF725FC04A9684600F0E6
:1023B00065F8C0B92046FFF7CAF970B104F1100002
:1023C0000499FFF72FFD2046FFF7F5FA00F09AF980
:1023D0000028ABD1FFF748FCA8E72046FFF7EBFA4F
:1023E00000F090F9A2E72046FFF7E5FA00F08AF93D
:1023F0000020B7E72DE9F04705468846164699467E
:102400002C461CB9FDF75EFF00BFFEE7B8F1000FD8
:1024100001D1206C08B9012000E0002018B9FDF7B7
:1024200051FF00BFFEE7FDF74DFF8246A06BE16B59
:1024300088421BD24A4641462046FFF77EF8A06CF0
:10244000401C70B9606A08B9012000E0002058B94A
:1024500004F1240000F016F930B12EB101203060F3
:1024600002E0A06C401CA064012700E00027504659
:10247000FDF72FFF3846BDE8F087000070B5044631
:102480000D461CB9FDF71EFF00BFFEE71DB9FDF7A5
:1024900019FF00BFFEE7FFF79DFB2868401C08B945
:1024A00000261FE0114920680968884206D01049BB
:1024B00060680968884201D8012613E00C49606809
:1024C0000968081A296888420BD22868084A616896
:1024D0001268511A401A28602046FFF755FD002661
:1024E00000E00126FFF786FB304670BD600000204B
:1024F000440000202DE9FF4F81B0804616469A46E1
:10250000DDE90E5BB8F1000F03D1FDF7DBFE00BF84
:10251000FEE7052D01D2012000E0002018B9FDF7EB
:10252000D1FE00BFFEE730461099FEF77BFF044660
:10253000002C64D0701E216B01EB800929F0070983
:1025400009F0070008B9012000E0002018B9FDF7E4
:10255000B9FE00BFFEE700962A462046119B02996D
:10256000FFF764F8524641464846FFF7BFFA20603D
:10257000BBF1000F01D0CBF80040FFF72BFB29483F
:102580000068401C274908602748006840B9264871
:1025900004600846006801280CD1FFF76BF809E0D9
:1025A0002248006830B920480068C06AA84201D8B3
:1025B0001D4804601E49E06A0968884202D91C4926
:1025C000E06A08601B480068401C1A490860084619
:1025D000006820641849E06A0968884202D91649EF
:1025E000E06A0860E16A01EB8101144A02EB8100B4
:1025F000211DFFF7E1FA0127FFF7FCFA01E04FF098
:10260000FF37012F09D10948006830B1064800683A
:10261000C06AA84201D2FFF727FB384605B0BDE8E3
:10262000F08F00004000002030000020500000200B
:1026300048000020640000204C0000207C000120A5
:10264000014908687047000030000020054909680A
:1026500009B9002005E00449096809B9012000E032
:1026600002207047500000205400002010B5FFF7F2
:10267000B1FA03480468FFF7BDFA204610BD000018
:102680004400002070B50646F068C4681CB9FDF728
:1026900019FE00BFFEE704F11800FFF74FFA1448D7
:1026A0000068A0B9201DFFF749FA1249E06A0968DD
:1026B000884202D90F49E06A0860E16A01EB8101B2
:1026C0000D4A02EB8100211DFFF776FA04E004F1C8
:1026D00018010A48FFF770FA0949E06A0968C96AEF
:1026E000884201D3012500E00025284670BD000086
:1026F000540000204C0000207C0001200801012033
:102700003000002070B500253148006818B9FDF789
:10271000D9FD00BFFEE7FFF75DFA2D480068401EB7
:102720002B4908600846006800284CD129480068F9
:10273000002848D0002621E02748C068C46804F17A
:102740001800FFF7FBF9201DFFF7F8F92349E06AAD
:102750000968884202D92149E06A0860E16A01EB10
:1027600081011F4A02EB8100211DFFF725FA1D4957
:10277000E06A0968C96A884200D3012616480068E1
:1027800008B9012000E000200028D5D016480068D4
:1027900060B106E0FFF7AEFA13480068401E124928
:1027A0000860114800680028F4D10126012E03D0EA
:1027B0000E480068012805D1012500200B4908605A
:1027C000FFF752FA00BFFFF715FA284670BD000068
:1027D0005400002040000020080101204C0000208F
:1027E0007C00012030000020580000205C00002008
:1027F0001FB50024FEF734FE0C48006868B10020C5
:102800000223CDE90030029003464FF4007208A184
:1028100003900948FFF76EFE04461CB9FDF752FD10
:1028200000BFFEE7204604B010BD00007400002089
:10283000546D7220537663009D1900082DE9FE4304
:1028400005460E4617461C46DDF828804FF0000965
:102850001348006808B3009601970295ACB9FFF7DA
:10286000F5FE012808D10023424669460C4800685D
:10287000FFF742FD814610E000231A4669460848EA
:102880000068FFF739FD814607E0002322466946CC
:1028900003480068FFF7AEFD81464846BDE8FE8369
:1028A000740000204FF04070E1EE100A7047000005
:1028B000D0280008000000207C000000C4010008AF
:1028C0004C2900087C0000207C070100E001000882
:1028D00000000000000000000102030401020304E4
:1028E00006070809000000000000000000000000CA
:1028F00000000000F8FF000000000000AAAAAAAA39
:1029000000000000000000000000000000000000C7
:1029100000000000000000000000000000000000B7
:1029200000000000000000000000000000000000A7
:102930000000000000000000FFFFFFFF000000009B
:0C2940000000000000000000000000008B
:04000005080002D914
:00000001FF
